:03000000020A22CF
:0C0A2200787FE4F6D8FD758144020A6973
:100DA000100D1000080004002000020040000100A7
:020DB0008000C1
:100B3200EFB410005064900B3FF8282873020B6F3B
:100B4200020B72020B75020B78020B7B020B7E0208
:100B52000B81020B84020B87020B8A020B8D020BA4
:100B620090020B93020B96020B99020B937FBB220E
:100B72007F12227FAE227FB6227F17227FB5227F8D
:100B8200BD227F92227FBF227FB7227FAD227F2D9F
:0B0B9200227F00227FA9227F04222284
:100CAA00E4F536F537C291C290F530F528D2B7F59A
:100CBA0021F522F533F531F524F523F508F50BF581
:100CCA0034F525120DC5120DB3120B9D12001E121A
:0D0CDA000990120700120521120AAE80ECED
:100C6100AC03120B32E50DF50DEFF50EAF05120BCE
:100C710032E50FF50FEFF510AF04120B32E513F566
:100C810013EFF514AF3D120B32E515F515EFF5161F
:100C9100AF3E120B32E519F519EFF51AAF3F120B02
:090CA10032E51BF51BEFF51C22E6
:100D6C00E538C394055007751200751800228511DB
:0B0D7C00117404F512851717F51822FA
:10084C00AE07AC03E540B4010CE538C39405500584
:10085C00750E00800CAF06120B32E50DF50DEFF5A1
:10086C000EE540B4020CE538C39405500575100034
:10087C00800CAF05120B32E50FF50FEFF510E540CC
:10088C00B4030CE538C394055005751400800CAF07
:10089C0004120B32E513F513EFF514E540B4040C18
:1008AC00E538C394055005751600800CAF3D120B4E
:1008BC0032E515F515EFF516E540B4050CE538C332
:1008CC0094055005751A00800CAF3E120B32E519D9
:1008DC00F519EFF51AE540B4060BE538C39405504D
:1008EC0004751C0022AF3F120B32E51BF51BEFF514
:0208FC001C22BC
:10001E00E5307047E52F54F0F52BC4540FF52BE562
:10002E002054F0F52DC4540FF52DE50C54F0F52E9B
:10003E00C4540FF52EE52F540FFDE520540FF53D5A
:10004E00852E3EE50C540FF53FAB2DAF2B120C61F8
:10005E00120D6CE526B40503E4F526E530700302B7
:10006E00052014B41900400302052090008775F096
:10007E0003A4C58325F0C583730200D20200EB02F0
:10008E0000F00200F50200FA02010C020134020136
:10009E005C0201840201AC0201D40201FC020224C2
:1000AE0002024C0202740202AA0202E002031602CB
:1000BE00034B0203800203B6020419020469020410
:1000CE00970204ED753D01753E0C753F0C7B0B7D63
:1000DE000A7F05120C6175120075180022753D021B
:1000EE00800D753D038008753D048003753D0575D3
:1000FE003E0C753F0C7B0B7D0A7F0502051DE52628
:10010E0075F00A84FFE52675F00A84ADF0E52775D3
:10011E00F00A84FBE52775F00A8485F03D753E0CE8
:10012E00753F0C0202A4E52675F00A84FFE52675DC
:10013E00F00A84ADF0E52775F00A84FBE52775F02B
:10014E000A8485F03D753E0C753F0C0202DAE526F9
:10015E0075F00A84FFE52675F00A84ADF0E5277583
:10016E00F00A84FBE52775F00A8485F03D753E0C98
:10017E00753F0C020310E52675F00A84FFE526751F
:10018E00F00A84ADF0E52775F00A84FBE52775F0DB
:10019E000A8485F03D753E0C753F0C020346E5263C
:1001AE0075F00A84FFE52675F00A84ADF0E5277533
:1001BE00F00A84FBE52775F00A8485F03D753E0C48
:1001CE0085283F0202A4E52675F00A84FFE5267510
:1001DE00F00A84ADF0E52775F00A84FBE52775F08B
:1001EE000A8485F03D753E0C85283F0202DAE5262D
:1001FE0075F00A84FFE52675F00A84ADF0E52775E3
:10020E00F00A84FBE52775F00A8485F03D753E0CF7
:10021E0085283F020310E52675F00A84FFE5267552
:10022E00F00A84ADF0E52775F00A84FBE52775F03A
:10023E000A8485F03D753E0C85283F020346E5266F
:10024E0075F00A84FFE52675F00A84ADF0E5277592
:10025E00F00A84FBE52775F00A8485F03D753E0CA7
:10026E0085283F0203B0E52675F00A84FFE5267562
:10027E00F00A84ADF0E52775F00A84FBE52775F0EA
:10028E000A8485F03DE52875F00A84F53EE528756B
:10029E00F00A8485F03F7540010203B3E52675F040
:1002AE000A84FFE52675F00A84ADF0E52775F00A9D
:1002BE0084FBE52775F00A8485F03DE52875F00A84
:1002CE0084F53EE52875F00A8485F03F75400202FC
:1002DE0003B3E52675F00A84FFE52675F00A84ADB2
:1002EE00F0E52775F00A84FBE52775F00A8485F0A2
:1002FE003DE52875F00A84F53EE52875F00A8485FB
:10030E00F03F7540030203B3E52675F00A84FFE55E
:10031E002675F00A84ADF0E52775F00A84FBE52713
:10032E0075F00A8485F03DE52875F00A84F53EE502
:10033E002875F00A8485F03F7540048068E52675BF
:10034E00F00A84FFE52675F00A84ADF0E52775F016
:10035E000A84FBE52775F00A8485F03DE52875F0E3
:10036E000A84F53EE52875F00A8485F03F75400550
:10037E008033E52675F00A84FFE52675F00A84AD14
:10038E00F0E52775F00A84FBE52775F00A8485F001
:10039E003DE52875F00A84F53EE52875F00A84855A
:1003AE00F03F75400602084CE5396401702AF539B4
:1003BE00152CE52CB4FF21752C3B1532E532B4FF1C
:1003CE001775323B1509E509B4FF0D753016E4F5C6
:1003DE0032F509F52C753401E50975F00A84FFE54F
:1003EE000975F00A84ADF0E53275F00A84FBE5324A
:1003FE0075F00A8485F03DE52C75F00A84F53EE52E
:10040E002C75F00A8485F03F02051DE534D3940067
:10041E004014E5349407500EC2B7E539B40109E42F
:10042E00F53905348002D2B7E50975F00A84FFE587
:10043E000975F00A84ADF0E53275F00A84FBE532F9
:10044E0075F00A8485F03DE52C75F00A84F53EE5DD
:10045E002C75F00A8485F03F02051DE53375F00A10
:10046E0084FFE53375F00A84ADF0E53175F00A844A
:10047E00FBE53175F00A8485F03DE52475F00A84BC
:10048E0085F03E753F0C02051DE53564017023F5C0
:10049E00350524E524B40A1AE4F5240531E531B412
:1004AE003C10E4F5310533E533B4640675336375FA
:1004BE003017E53375F00A84FFE53375F00A84AD25
:1004CE00F0E53175F00A84FBE53175F00A8485F0AC
:1004DE003DE52475F00A8485F03E753F0C8030E5CD
:1004EE002875F00A84FFE52875F00A84ADF0E5273B
:1004FE0075F00A84FBE52775F00A8485F03DE52644
:10050E0075F00A84F53EE52675F00A8485F03F12F3
:03051E000C61224B
:100AAE00E52F54F0F52BC4540FF52BE52F540FF50D
:100ABE002EE52B75F00AA4F52B252EF52BE52054EB
:100ACE00F0F52DC4540FF52DE520540FF52EE52D20
:100ADE0075F00AA4F52D252EF52DE523B52B1BE576
:100AEE0008B52D16E525B40114E50B7010F521F5AA
:100AFE0022750B01F521F5228003E4F50BE50BB40D
:100B0E00011FC3E5229490E52194015014E5389419
:100B1E0005500BC2B70522E5227002052122D2B77D
:040B2E0022D2B722F6
:100D1700E4F544D2B5F543E544C313F54430B503D0
:100D2700434480D2B6120003120003C2B612000376
:0B0D37000543E543C3940840DEAF44D1
:010D4200228E
:020CE7008F4339
:100CE900E4F544E54330E004D2B58002C2B5D2B69A
:100CF900120003120003C2B6120003120003E543F7
:0D0D0900C313F5430544E544C3940840D6E8
:010D160022BA
:1008FE00C2B4120003C2B6120003D2B41200037FB8
:10090E008E120CE7120003E4FF120CE7D2B61200AF
:10091E0003C2B4E4F53A753B80E53AC39407503C04
:10092E00C2B4120003C2B6120003D2B4120003AF57
:10093E003B120CE7120003741D253AF8E6FF120C69
:10094E00E7120003120003D2B6120003C2B4120063
:10095E0003120003053A053B053B80BDC2B41200ED
:10096E0003C2B6120003D2B41200037F8E120CE73C
:10097E001200037F80120CE7D2B6120003C2B4023B
:02098E00000364
:050003000000000022D6
:040D87007F017E006A
:100D8B00D3EF9400EE9400400B7D2EDDFEEF1F7031
:040D9B00EF1E80ECDB
:010D9F002231
:100B9D00E4F541743A2541F8E4F60541E541B40721
:100BAD00F2E4F541754281E541C394075033C2B477
:100BBD00120003C2B6120003D2B4120003AF4212E8
:100BCD000CE7120D17743A2541F8A607120003D24F
:100BDD00B6120003C2B4120003054105420542805E
:100BED00C6E53AF46003853A0CE53BF46003853BBA
:090BFD0020E53CF46003853C2F67
:010C060022CB
:0F0DC500438902E4F58CF58AD2AFD2A9D28C22F1
:100DB300438910758D4CE4F58BD2AFD2ABD28EF54F
:020DC3000A2202
:03000B00020C07DD
:0B0C0700C0E0C0D075D000C000C005E8
:100C1200C28C752900752A00E52A25E0240DF8E624
:100C2200F53608E6F5377D11E537139291D290003B
:100C3200C29000E536C313F536E53713F537DDE824
:100C4200D29200C29200052AE52A700205296408A0
:060C5200452970C4D28C9C
:090C5800D005D000D0D0D0E0326C
:03001B00020D4390
:100D4300C0E0C0D0758D4C758B00050AE50AB4046C
:100D530013750A007535010538E538B40A06753888
:090D630000753901D0D0D0E03256
:10099000D293309303020A21120D87309303020A87
:1009A00021E530B41A0050719009AFF8282873027D
:1009B00009FD0209FD0209FD0209FD0209FD020A05
:1009C000100209FD0209FD0209FD020A010209FDEA
:1009D0000209FD0209FD0209FD020A060209FD02E3
:1009E00009FD0209FD0209FD0209FD020A0B020AC6
:1009F00010020A10020A10020A10020A10053080C2
:100A000018753006801375300A800E75300F800916
:100A1000E4F530F526F527F52820930512001E8011
:020A2000F822BA
:10070000D29430940302084B120D873094030208F0
:100710004BE53014B41800400302084390072A75D3
:10072000F003A4C58325F0C583730207720207AEE8
:1007300002080102082A0208400207BA0207BA02A8
:1007400007BA0207BA0207F30207F30207F3020728
:10075000F30207F302080F02080F02080F02080F46
:1007600002080F02080F02082502082002083602BC
:10077000083B753006E52F54F0F52BC4540FF52BCC
:10078000E52F540FF52EE52B75F00AA4252EF5263E
:10079000E52054F0F52DC4540FF52DE520540FF548
:1007A0002EE52D75F00AA4252EF527020843852392
:1007B0002685082775300A020843E52675F00A8465
:1007C000C454F0FFE52675F00A84EF25F0F51FE527
:1007D0002775F00A84C454F0FFE52775F00A84EF0A
:1007E00025F0F51E851F2FF520E4F50CF51D1208E8
:1007F000FE8009852623852708852825E4F5308095
:100800004275300F850926853227852C288034854E
:10081000260985273285282C753015E4F534802388
:10082000753015801E7530168019753017E4F53354
:10083000F531F524800D7530188008753017800368
:0C08400075301920940512001E80F8226B
:10052100D2953095030206FF120D8730950302061E
:10053100FFE53024FAB4140040030206F790054C9D
:1005410075F003A4C58325F0C583730205880205F0
:10055100980205BE0206230205CF0205E902061331
:1005610002062302062502062B020642020661024A
:1005710006230206960206A90206C70206C702065C
:10058100D50206D50206E1740A2526F526C394187C
:1005910050030206F78045E52675F00A84E5F0046C
:1005A10075F00A84AFF0E52675F00A8475F00AA4A7
:1005B1002FF526C3941850030206F7804F740A25BD
:1005C10027F527C3943C50030206F702066F740A0D
:1005D1002526F526C3941850030206F7E52675F083
:1005E1000A8485F0260206F7E52675F00A84E5F00F
:1005F1000475F00A84AFF0E52675F00A8475F00AF7
:10060100A42FF526C3941850030206F77526140289
:1006110006F7740A2527F527C3943C50030206F711
:10062100804C80536328010206F7740A2526F526BB
:10063100C3946450030206F7749C2526F52602062E
:10064100F7E52675F00A84E5F00475F00A84AFF049
:10065100E52675F00A8475F00AA42FF5260206F73F
:10066100740A2527F527C3943C50030206F774C486
:100671002527F5270206F7E52775F00A84E5F0043A
:1006810075F00A84AFF0E52775F00A8475F00AA4C5
:100691002FF5278061740A2528F528C3943C40561C
:1006A10074C42528F528804EE52875F00A84E5F004
:1006B1000475F00A84AFF0E52875F00A8475F00A34
:1006C100A42FF528803085260985273285282C75A9
:1006D10030158022753018E4F533F531F524801694
:1006E1000526E526B4640FE4F5260527E527B4645D
:0F06F10005E4F527052820950512001E80F82244
:100A2E00020CAAE493A3F8E493A34003F68001F228
:100A3E0008DFF48029E493A3F85407240CC8C333C9
:100A4E00C4540F4420C8834004F456800146F6DF98
:100A5E00E4800B0102040810204080900DA0E47E7B
:100A6E00019360BCA3FF543F30E509541FFEE4938D
:100A7E00A360010ECF54C025E060A840B8E493A354
:100A8E00FAE493A3F8E493A3C8C582C8CAC583CA7F
:100A9E00F0A3C8C582C8CAC583CADFE9DEE780BE37
:010DB2000040
:00000001FF
